:020000040800F2
:10000000A81300209D010008F9750008A54B000801
:10001000BB520008911A00086F8800080000000019
:10002000000000000000000000000000A97A0008A5
:10003000271E00080000000083760008817D00086C
:10004000B7010008B7010008B7010008B7010008B0
:10005000B7010008B7010008B7010008B7010008A0
:10006000B7010008B7010008B7010008B701000890
:10007000C51D0008B7010008B7010008D11D000820
:10008000B7010008B7010008B7010008B701000870
:10009000B7010008B7010008B7010008B701000860
:1000A000B7010008357E0008197E0008B701000876
:1000B000B7010008417E000800000000B7010008F9
:1000C000B70100080000000000000000B7010008B0
:1000D0000000000011880008B7010008B7010008FF
:1000E000B7010008B7010008000000000000000090
:1000F0000000000000000000000000000000000000
:1001000000000000000000000000000000000000EF
:1001100000000000000000004D7E0008B70100084C
:1001200000000000000000000000000000000000CF
:1001300000000000000000000000000000000000BF
:10014000B7010008B701000800000000B70100086F
:10015000B7010008B7010008B7010008B70100089F
:10016000B7010008B701000800000000000000000F
:10017000000000000000000000000000000000007F
:1001800000000000B7010008DFF80CD000F0A0FD6F
:1001900000480047E9910008A8130020064880475E
:1001A00006480047FEE7FEE7FEE7FEE7FEE7FEE75C
:1001B000FEE7FEE7FEE7FEE7097E0008890100088A
:1001C0002DE9F05F0546002092469B46884606468C
:1001D000814640241BE0284641464746224600F01F
:1001E00020F853465A46C01A914110D3114618467A
:1001F000224600F02EFB2D1A67EB01084F462246DF
:100200000120002100F025FB17EB00094E41201EC4
:10021000A4F10104DFDC484631462A464346BDE8E6
:10022000F09F202A04DB203A21FA02F000217047D7
:1002300021FA02F3D040C2F120029140084319464E
:10024000704740EA01039B0703D009E008C9121F69
:1002500008C0042AFAD203E011F8013B00F8013B80
:10026000521EF9D27047D2B201E000F8012B491EAC
:10027000FBD270470022F6E710B513460A46044643
:100280001946FFF7F0FF204610BD30B505462A4657
:100290000B4612F8010B13F8014B08B1A042F8D03D
:1002A0001CB1002802D06D1CF1E7284630BDCAB24F
:1002B000401E10F8011F8A4202D00029F9D1002007
:1002C0007047421C10F8011B0029FBD1801A7047AF
:1002D00010B5002200E0521C835C8C5CA34201D16B
:1002E000002BF8D1D8B2E1B2401A10BD034611F884
:1002F000012B00F8012B002AF9D11846704730B5C0
:1003000005460020034600E05B1C934205D2EC5CEE
:10031000C85C201A01D1002CF6D130BD0FB400B555
:100320008DB010A909900B9000914FF0FF300A900A
:1003300000200C9005480690054807906A4609A8D9
:100340000F9900F0B7FA0DB05DF814FBD108000862
:10035000EF0800082DE9FF5F1D464FF0FF3BD5E990
:10036000014691465F464FF00008A9697F1C01983D
:100370008847296A824688470028F6D1BAF1FF3FAC
:100380000CD024F4C064002E19DD600614D5BAF137
:100390002B0F09D0BAF12D0F0ED103E0584604B04F
:1003A000BDE8F09F44F48064A9697F1C01988847E8
:1003B000761E8246002E02DDBAF1300F03D0B9F16D
:1003C000000F26D032E0A969761E44F400747F1C29
:1003D000019888478246002E05DDBAF1780F06D0D5
:1003E000BAF1580F03D0B9F1000F10D01EE0B9F1E7
:1003F000000F02D0B9F1100F18D1A969761E24F4AC
:1004000000747F1C019888478246102002E0082073
:1004100000E00A20814609E008FB0908A969761E68
:1004200044F400747F1C019888478246002E05DD45
:100430004946504600F029FA0028EDDAE9690198AA
:100440008847A00502D46FF00100A8E7E00725D196
:10045000600613D5600502D5C8F1000000E04046F3
:1004600029680A1D2A600968220501D5087015E06F
:10047000220701D5088011E008600FE02868011DFF
:1004800029600068210502D580F8008006E0210778
:1004900002D5A0F8008001E0C0F8008038467EE771
:1004A0002DE9FF4F087883B09946FF2805D0491CF5
:1004B0002D2804D00024002008E000200BE00124B7
:1004C000F9E700EB800003EB4000491C0B78FF2BA1
:1004D000F7D104B1404200230293147819461D4617
:1004E0002D2C01D02B2C04D1521C2D2C13D00024E8
:1004F0000294AA461478FF2C0FD00A25A3FB057896
:1005000001FB05814FF0000C03FB0C11521CE31999
:100510004AEB0101EEE70124EAE7814453EA0100D6
:1005200002D019F5C87F06DA03980021C0E900114E
:1005300007B0BDE8F08F0025AE4E2F46DFF8B88239
:10054000184600F06DFBCDE90001B9F1000002DAB8
:10055000C9F1000400E004460023A74A1AEB030B8C
:1005600042EB045A12E0E00707D02A4633463846E9
:10057000414600F074FA074688462A46334610463C
:10058000194600F06CFA05460E466410002CEAD1BC
:10059000DDE90001B9F1000F5A46534606DA00F0D2
:1005A000D0FA3A46434600F0CCFA05E000F057FA9C
:1005B0003A46434600F053FA029A0AB181F00041EC
:1005C000039AC2E90001B3E72DE9FF4F1F468DB042
:1005D000D7E901464FF0FF382E2045464FF000097D
:1005E0000B90B9696D1C0E988847396A8246884716
:1005F0000028F6D1BAF1FF3F0AD024F4D064002ECF
:1006000011DDBAF12B0F08D0BAF12D0F0BD102E09A
:10061000404611B08DE744F48064B9696D1C0E98B2
:1006200088478246761E6946600501D52D2000E088
:100630002B208DF8000001F1010B0DF1200809E0DD
:10064000B9696D1C0E98884782460F9844F400746F
:10065000761E0560002E02DDBAF1300FF0D00B9946
:100660008A453ED144F0800406E00F99681CA9F148
:10067000010944F400740860B9696D1C761E0E9877
:10068000884782463028F0D02BE00B998A4505D167
:10069000200603D444F08004761E18E0504608F08B
:1006A000F3F908B30DF11301761E44F400748B4581
:1006B00008D2AAF130000BF8010B200607D5A9F1EA
:1006C000010003E0200602D409F101008146A005E3
:1006D00002D50F99681C0860B9696D1C0E9888478F
:1006E0008246002ED1DC53E0002E51DDBAF1650FB9
:1006F00002D0BAF1450F4BD1A00549D5B9696D1C9F
:1007000024F44074761E0E9888478246002E0CDD35
:100710002B2804D0BAF12D0F07D144F48074B969A5
:100720006D1C0E9888478246761EE00501D52D2166
:1007300000E02B2108F8011BCDF82C8021E00DF101
:100740002901761E44F4007488450CD2AAF13000C9
:1007500010F0FF0088F8000002D10B99884509D9F4
:1007600008F1010806E0E00501D5244801E042F265
:100770000F708146B9696D1C0E98884782460F98A4
:100780000560002E04DD504608F07EF90028D6D121
:10079000F9690E988847FF208BF8000088F8000060
:1007A0000020069007904B466A4608A906A8FFF766
:1007B00077FEA00502D46FF001002AE714F0240FA1
:1007C0000AD0E00714D1DDE906123868031D3B604A
:1007D0000068C0E900120BE0DDE9060100F05CFAF8
:1007E0000146E00704D13868021D3A6000680160E4
:1007F00028460EE7000014400000F03FF1D8FFFF4C
:1008000000F0004230F000400AD0C10D01F56071E7
:10081000C0F3160042EA0151C20840071143704775
:1008200000200146704730B50B46014600202022CB
:10083000012409E021FA02F59D4205D303FA02F5ED
:10084000491B04FA02F52844151EA2F10102F1DC4D
:1008500030BD202A04DB203A00FA02F10020704764
:100860009140C2F1200320FA03F3194390407047EE
:10087000004870476094000810B50446FFF7F8FF81
:100880000068005D00F0010010BD3A2800D2303849
:1008900020F02002412A01D3A2F13700884201D37F
:1008A0004FF0FF3070470000026811441378016078
:1008B00018467047D1600449516104491162002112
:1008C0001161114600F028BAA9080008790800084B
:1008D000426842B1016811F8013B23B1521EC0E9E0
:1008E0000012184670470121C160881E7047426897
:1008F0005AB1C368016843B983688B4205D0491E69
:10090000521CC0E90012002070474FF0FF307047C2
:100910002DE9FE4F804681EA0300C00F0C4600908F
:1009200021F0004123F00045B8EB0200A94105D2B7
:100930004046214690461C460B46024623F00040A6
:10094000104347D0270DC7F30A00C3F30A510290A2
:10095000401A019040286BDAC3F3130040F4801B67
:100960000098924620B10023D2EB030A63EB0B0BF5
:1009700001985946C0F140025046FFF76AFF06460B
:100980000D4650465946019A00F0B4F910EB0800A4
:100990006141002487EA115284EAE7731A4340D088
:1009A000009A62B3019A012A4FEA075215DC001B34
:1009B00061EB02014FF0004202EA0752CDE900422A
:1009C000001C41F5801132462B4600F081FB03B03C
:1009D000BDE8F08F40462146F9E7001B61EB0201BC
:1009E000001C41F5801300185B412018A2F5001788
:1009F00047EB030140EAD570B6196D4111E06D086F
:100A00004FEA360645EAC0754FEA0752001B61EB14
:100A10000201001C41F5801149084FEA300000191D
:100A2000514132462B4603B0BDE8F04F00F041BBC8
:100A30000098012240000023D0EB020263EBE07338
:100A4000009821464FEAE074B8EB000061EB040126
:100A5000E9E783F000435BE781F0004158E72DE9C7
:100A6000FE4F81EA030404F0004421F000410094A9
:100A70004FF0000B23F0004350EA01045ED052EA2D
:100A800003045BD0C3F30A54C1F30A552C44A4F207
:100A9000F3340194A0FB0254C1F3130141F480111B
:100AA000C3F3130343F4801301FB024400FB034E22
:100AB000840A970A44EA815447EA8357A4FB0768EB
:100AC00002958D0A05FB07854FEA932C04FB0C5415
:100AD0002705029D4FEA065847EA1637B5EB080589
:100AE0006EEB070C870E920E47EA811742EA8312DB
:100AF000A7FB0201B6EB0B0164EB00042B0D43EAEC
:100B00000C335E1844EB1C50DA465146E7FB0201F9
:100B1000C5F313044FEA0B3343EA14534FEA04328C
:100B2000019C43EA0603A4F10C040294009CCDE965
:100B300000B400F0CDFA03B0BDE8F08F002001460C
:100B4000F9E72DE9F04D81EA030404F0004B21F0B0
:100B5000004514464FF0000A23F0004150EA050218
:100B600020D054EA01021DD0C5F30A570246C5F34E
:100B70001303C1F31300C1F30A5640F4801543F484
:100B80008013A7EB0608101BD64608F2FD3873EB5E
:100B9000050002D308F1010801E092185B41B8F1A9
:100BA000000F03DA00200146BDE8F08D00204FF46D
:100BB0008011064684460EE0171B73EB050705D32C
:100BC000121B63EB050306434CEA010C49084FEA8C
:100BD000300092185B4150EA0107EDD152EA030060
:100BE00012D082EA040083EA0501084305D0101BF5
:100BF000AB4106D20122002306E000224FF0004361
:100C000002E06FF0010253101AEB06004CEB0851A2
:100C100010EB0A0041EB0B01BDE8F04D00F049BAC2
:100C20000EB540F2334202920022CDE90022134673
:100C300000F04EFA03B000BDC1F30A52C1F3130134
:100C400040F2FF3341F480119A4202DA002001465B
:100C5000704740F233439A42A2F2334202DC5242DE
:100C6000FFF7DFBAFFF7F5BD30B5041E71F10004E0
:100C700004DB4FF00044404264EB0101141E73F1A9
:100C8000000405DB1C464FF00043524263EB0403B3
:100C9000994208BF904230BD01F0004330B421F0CA
:100CA000004150EA010206D00A0DA2F56072C1F3BC
:100CB0001301002A02DC30BC00207047440F44EAD4
:100CC000C104C100E01830BC00EBC25000F0BAB95A
:100CD000064C074D06E0E06840F0010394E8070089
:100CE00098471034AC42F6D3FFF752FAA4960008A6
:100CF000C4960008202A06DBCB17203A41FA02F0FE
:100D000043EAE07306E041FA02F3D040C2F1200268
:100D100091400843194670472DE9F34F8BB04FF0CF
:100D2000000801F10C000C464FF0010B46460DF196
:100D3000080A01906269012101989047051E2DD093
:100D4000252D2CD0216A8847C0B162690121019804
:100D50009047216A88470028F7D1411E62690198AF
:100D6000904700E0761CA1690B988847216A884764
:100D70000028F7D1E1690B988847DBE7A1690B9858
:100D800088470746A84201D1761CD3E7E1690B9852
:100D900088477F1C02D1B8F1000F6FD046E10027D1
:100DA00062693D463946019890472A2804D1626914
:100DB0000121019890470125DFF8849262690121A1
:100DC00001989047A0F130010A290AD24F45E5DC8D
:100DD00007EB870100EB4107303FDFD445F01005FA
:100DE000ECE7E90601D46FF000476C280AD04C28E4
:100DF00014D0682815D06A280DD074281CD07A2801
:100E00001AD01DE062690121019890476C2802D038
:100E100045F0040514E045F002050DE045F020051D
:100E20000AE06269012101989047682802D045F0E4
:100E3000080505E045F400656269012101989047C5
:100E4000C4E9015765283DD019DC58287AD00CDC5C
:100E5000452837D004DC252826D0412831D131E07F
:100E600046282FD047282CD12CE05B2877D061284A
:100E700028D063287CD0642823D15AE0D0E06F28A2
:100E800048D008DC66281DD067281BD0692821D0EF
:100E90006E2816D127E0702845D0732868D07528B1
:100EA00047D078280DD14DE0A1690B9888470546B9
:100EB00025283FF469AFE1690B9888476D1C3FF422
:100EC0006AAFB3E023466A466FF001000B99FFF763
:100ED0007BFB9EE045F040006060A80723464FF092
:100EE000000236D43EE0E8077FF447AF2068011DDA
:100EF00021600068290501D506701BE7290701D587
:100F0000068017E7A90703D5F117C0E9006111E7CB
:100F100006600FE745F040006060A80723464FF0E9
:100F2000080216D41EE040F60E0125EA01006060BA
:100F300016E045F040006060A80723464FF00A0223
:100F400007D40FE045F040006060A80708D52346AD
:100F500010226FF001000B99AFF3008059E007E019
:100F6000234610226FF001000B99FFF7F3F950E0D0
:100F70004FF000094F464B46632802D05B2806D04D
:100F800040E0E80601D40120A06001273AE0626950
:100F90000121019890475E2805D14FF0010962694F
:100FA000494601989047216939B900210A465346BC
:100FB00043F82120491C0829FADBB0B3216969B93B
:100FC000C11700EBD16253110AEB830122F01F021B
:100FD000821A01200B68904003430B606269012173
:100FE000019890475D28E8D1B9F1000F09D00020A1
:100FF000514651F82020D24341F82020401C0828B7
:10100000F7DB02AB224600976FF001000B99AFF3BC
:10101000008000280CDA401C08D1BBF1000F05D07D
:101020004FF0FF300DB0BDE8F08FFFE74046F9E725
:10103000E90701D108F1010806444FF0000B79E6F9
:10104000CCCCCC0C0029A8BF7047401C490008BF7D
:1010500020F00100704710B4B0FA80FC00FA0CF0E8
:1010600050EA010404BF10BC704749B1CCF1200420
:1010700021FA04F411FA0CF118BF012121430843AD
:10108000A3EB0C01CB1D4FEA00614FEA102042BFD9
:10109000002010BC704700EBC35010440029A4BFCF
:1010A00010BC7047401C490008BF20F0010010BC74
:1010B000704710B5141E73F1000408DA401C41F1AA
:1010C000000192185B411A4301D120F0010010BDCC
:1010D0002DE9F04D92469B4611B1B1FA81F202E042
:1010E000B0FA80F220329046FFF7B3FB04460F4679
:1010F00040EA0A0041EA0B0153465A46084313D01E
:10110000114653EA010019D0C8F140025046FFF7DA
:1011100088F805460E46504659464246FFF799FB69
:10112000084305D0012004E020463946BDE8F08D93
:101130000020054346EAE0762C4337430A986305CE
:10114000E40AA0EB08000022FD0A44EA47540A30F2
:1011500002D500200146E9E7010510196941DDE9E2
:10116000084500196941BDE8F04DA2E70146406A13
:10117000026C12F0500F03D0806B026B08461047D0
:10118000016C41F4007101640168C96811F4406F99
:101190000CD1417E51B9016C21F480710164016C64
:1011A000C90403D4016C41F00101016401F0D0B91C
:1011B000406A016C41F040010164416C41F004015E
:1011C000416401F075BA406A01F070BA70B5044626
:1011D0000068816801F0030101292AD10168C9076B
:1011E00027D0816801F00D01012914D1816841F0F7
:1011F0000201816021680320086001F03BFF054681
:1012000013E000BF01F036FF401B02280DD9206813
:101210008068C00709D0206C40F010002064606C2A
:1012200040F001006064012070BD20688068C00744
:10123000E8D1002070BD000070B5044600688168E8
:1012400001F00301012902D10168C90725D1816894
:10125000134A114212D1816841F00101816001F00D
:1012600009FF054614E000BF01F004FF401B0228FF
:101270000ED920680068C043C00709D0206C40F038
:1012800010002064606C40F001006064012070BDBB
:1012900020680068C043C007E6D1002070BD000090
:1012A0003F00008070B504460B4800214FF40075E4
:1012B00044600170418029460848FEF7DBFF206842
:1012C000016841F0100101602A462046BDE87040E7
:1012D000024903F0F3BB000034000020680A00203C
:1012E000064810B5017821B100210170044800F0D2
:1012F00009F8BDE8104004F0D5BA00003400002021
:10130000680C002070B505460322B5A1FEF7F7FF73
:1013100028B1B4A1022003F0C5FC012070BDED1C72
:101320003F212846FEF7C3FF002690B10670B6A104
:101330002846FEF7CDFF40B1B7A12846FEF7C8FF0B
:10134000002875D02A46B8A13BE1BDE8704004F002
:101350000FBE3D212846FEF7AAFF040069D0267083
:10136000441CBAA12846FEF7B3FF00287AD0BAA1E0
:101370002846FEF7ADFF002875D0BAA12846FEF733
:10138000A7FF002870D0BCA12846FEF7A1FF0028C7
:101390006BD0BEA12846FEF79BFF002866D09AA11D
:1013A0002846FEF795FF002871D0BEA12846FEF71B
:1013B0008FFF00286CD0BFA12846FEF789FF0028C8
:1013C00067D0C0A12846FEF783FF00287DD0C1A1C9
:1013D0002846FEF77DFF002878D0C2A12846FEF7F8
:1013E00077FF002874D0C3A12846FEF771FF0028BC
:1013F0006FD0C4A12846FEF76BFF00286BD0C6A1B2
:101400002846FEF765FF002867D0C8A12846FEF7EA
:101410005FFF00287DD0CAA12846FEF759FF0028AB
:1014200078D0CCA12846FEF753FF002873D001E006
:10143000CCE0BAE0CBA12846FEF74AFF00286BD0EB
:10144000CDA12846FEF744FF002866D0CEA128464D
:10145000FEF73EFF00287DD0CFA12846FEF738FFDB
:10146000A8B304E016E01AE01EE022E026E0CEA1D8
:101470002846FEF72DFF68B3CFA12846FEF728FFC8
:1014800050B3D2A12846FEF723FF38B397E01AE005
:1014900029E02DE02046BDE8704004F093BD2046D1
:1014A000BDE8704005F09ABB2046BDE8704005F0ED
:1014B000CBBA2046BDE8704005F01EBB2046BDE813
:1014C000704005F04FBB204609E016E01AE058E0F6
:1014D0001DE027E05AE02AE05DE02DE060E0BDE895
:1014E000704005F02BB92046BDE8704005F06EBA9B
:1014F0002046BDE8704003F0E1BE2046BDE87040E4
:1015000004F0FABF2046BDE8704005F009BC204653
:1015100004E016E01AE020E024E028E0BDE8704096
:1015200004F0C8BD2046BDE8704005F09BBB2046D6
:10153000BDE8704004F008B82046BDE8704004F0F3
:101540004DB92046BDE8704003F038BF2046BDE8E5
:10155000704000E010E004F0DDB82046BDE87040C7
:1015600003F022BB2046BDE8704005F061B820467C
:10157000BDE8704005F0EAB92046BDE8704005F0CE
:10158000ABB92046BDE8704005F08AB82046BDE8FA
:10159000704005F053B92046BDE8704004F0A6BC89
:1015A0002046BDE8704005F00FB91BA12846FEF7A4
:1015B0008FFE58B188A12846FEF78AFE50B12A4610
:1015C00088A1022003F06EFB032070BDBDE87040CF
:1015D00004F0E2BC2046BDE8704003F013BB0000FD
:1015E00041542B005B5741524E5D20496E76616C31
:1015F000696420415420636F6D6D616E6420666F75
:10160000726D61740D0A00004D6F746F72536574D2
:1016100044657649440000005175657279566572DB
:1016200073696F6E000000005B5741524E5D20559C
:101630006E6B6E6F776E20717565727920636F6D5A
:101640006D616E643A2025733F0D0A004D6F746F13
:101650007252756E000000004D6F746F7253746F9C
:10166000700000004D6F746F725374617475735124
:1016700075657279000000004D6F746F725374616C
:1016800074757355704C6F61640000004D6F746F1A
:101690007253746174757355704C6F616453746FD9
:1016A000700000004D6F746F7253657454797065EB
:1016B000000000004D6F746F72416C61726D566175
:1016C0006C7565004D6F746F7252756E5265706502
:1016D000617400004D6F746F7253746F7052657057
:1016E000656174004D6F746F7252756E43757374DB
:1016F0006F6D00004D6F746F7253746F704375732C
:10170000746F6D004D6F746F725061697252756EB7
:1017100052657065617400004D6F746F725061693D
:101720007253746F70526570656174004D6F746FA1
:10173000725061697252756E437573746F6D0000FB
:101740004D6F746F725061697253746F704375732B
:10175000746F6D004875616E51695F537461727486
:10176000000000004D6F746F72436F6E74726F6C87
:101770004D6F6465000000004D6F746F72536574A7
:10178000546F7271756500004D6F746F725365749C
:1017900053706565640000004D6F746F724375721D
:1017A00072656E74504944004D6F746F725370656A
:1017B00065645049440000004D6F746F72436F6E52
:1017C00074726F6C51756572790000004D6F746FA3
:1017D00072456E61626C65004875616E51695F5358
:1017E000746F70005B5741524E5D20556E6B6E6F8B
:1017F000776E20415420636F6D6D616E643A2025D1
:10180000730D0A000FB44FF4807100B5C1B043AB43
:101810006846429A07F040F8002810DDFF280ED8ED
:101820000D220DF80020401C0A220DF80020401C5B
:1018300082B2044869466423406803F060F941B00D
:101840005DF814FB3400002070B5314C054660682B
:1018500085425CD1686F0068406880B2C0F5007056
:101860006080284602F0FEFE020003D029A102207B
:1018700003F018FA6288501EFF2835D22F4901F56F
:101880000070FEF7DEFC608802280BD32B49014470
:1018900011F8022C0D2A05D111F8011C0A2901D1D9
:1018A000801E60802648618800260246465425A195
:1018B000304603F0F7F9012020702AA12048FEF7F6
:1018C000E4FC48B92BA11E48FEF7DFFC20B92EA18D
:1018D0001B48FEF7DAFC38B11948FFF713FD2670F4
:1018E00030A1012003F0DEF94FF4007421461348C3
:1018F000FEF7C0FC22461149284603F0DFF802003B
:1019000005D0BDE8704033A1032003F0CBB970BD12
:10191000340000205B5741524E5D204661696C6582
:101920006420746F2073746F7020444D412C2073B9
:1019300074617475733A2025640D0A00680A0020EA
:10194000680C00205B44454255475D20436F6D6D38
:10195000616E642072656365697665643A202573FB
:101960000D0A000041542B4D6F746F7253746F70E9
:101970000000000041542B4D6F746F7253746F70F0
:10198000437573746F6D000041542B4D6F746F720B
:1019900053746174757355704C6F616453746F70D8
:1019A000000000005B494E464F5D205072696F7227
:1019B00069747920636F6D6D616E642070726F63FE
:1019C000657373656420696D6D6564696174656CC8
:1019D000790D0A005B4552524F525D204661696C99
:1019E000656420746F207265737461727420444D55
:1019F0004120726563657074696F6E2C2073746129
:101A00007475733A2025640D0A00000070470000C9
:101A100070B5BDEEC00A050010EE100A44B200EE2B
:101A2000104A1A48B8EEC00A00EB850080ED000AA3
:101A300006D0012D08D0022D0AD0032D0FD10BE0C6
:101A4000204603F065F90AE0204603F07DF906E040
:101A5000204603F095F902E0204603F0ADF90B496A
:101A600005EBC500103100EB400001EB8000002CBD
:101A700002DD4FF0010105E002DA4FF0FF0101E065
:101A80004FF0000180F8641070BD0000E80D0020E8
:101A9000FEE71CB501460020D1E90021CDE9002177
:101AA000ADF806006B460422014633F81140491C8C
:101AB00060409142F9D3002801D14FF6FF701CBD60
:101AC0000F4A10B55388984205D002460DA1022056
:101AD00003F0E8F812E0481E042802D30A4613A1D6
:101AE00009E00748001D084410F8010C08B1012066
:101AF00010BD0A4616A1022003F0D4F8002010BD44
:101B0000140000205B5741524E5D204465766963A6
:101B100065204944206D69736D617463683A2025BE
:101B20006420213D2025640D0A0000005B574152CE
:101B30004E5D20496E76616C6964206D6F746F72C2
:101B4000206E756D6265723A2025640D0A000000F2
:101B50005B5741524E5D204D6F746F72202564209B
:101B600069732064697361626C65640D0A0000002A
:101B700008B1012100E0002104480029017004D1CE
:101B8000B7EE000A80ED010A417070473C0000206A
:101B900010B504461B488460A06B002828D002685A
:101BA00019A1012003F07EF80021204600F0D8FAA8
:101BB000024620A1012003F075F8124904220C31DD
:101BC000204600F0F7FE020014D023A1012003F00C
:101BD00069F8626C2DA1012003F064F8A06B002865
:101BE0000ED0826BBDE810402FA1012003F05AB83F
:101BF00034A100E03CA1BDE81040012003F052B840
:101C000010BD00003C0000205B494E464F5D204463
:101C10004D412048616E646C65204F4B2C20496E0D
:101C20007374616E63653A203078253038580D0A38
:101C3000000000005B494E464F5D20414443204375
:101C4000616C6962726174696F6E2073746174751E
:101C5000733A2025640D0A005B494E464F5D2045CE
:101C600052524F523A204661696C656420746F206D
:101C700073746172742041444320444D412C20739D
:101C800074617475733A2025640D0A005B494E46F1
:101C90004F5D20414443204572726F72436F64650B
:101CA0003A20256C750D0A005B494E464F5D204475
:101CB0004D41204572726F72436F64653A20256C06
:101CC000750D0A005B494E464F5D204552524F52FA
:101CD0003A20444D412048616E646C652069732050
:101CE0004E554C4C210D0A005B494E464F5D20532A
:101CF0005543434553533A2041444320444D4120EA
:101D0000737461727465640D0A000000014880EC10
:101D1000030A704750000020B5EEC00A0E48F1EEED
:101D200010FA4FF07E5202D29FED0C0A08E010EE3E
:101D3000101A914204DDB7EE000A80ED010A07E0B7
:101D400010EE101A80ED010A914201DA012100E043
:101D500001780170704700003C0000200000000086
:101D6000B0EE401AB5EEC01AF1EE10FA04D9F5EE55
:101D7000C00AF1EE10FA02D8B7EE000A1CE0B7EE86
:101D8000002A9FED0E0AC2EE201A61EE000A82EED2
:101D9000200A70EE210A81EEA00AB5EEC00AF1EE2B
:101DA00010FA02D29FED060A06E010EE100AB0F11A
:101DB0007E5F01DDB0EE420AFFF7AEBFDB0FC94028
:101DC00000000000014800F0C4BE0000DC0000205C
:101DD000014800F0BEBE000024030020054A01684F
:101DE00011441422B1FBF2F1890001640249C1637C
:101DF00070470000F8FFFDBF0000024030B590F8CA
:101E000040500124AC40C56B6C600468636043685B
:101E1000102B036803D099600068C26030BD9A60DF
:101E20000068C16030BD704772B6FEE70649002009
:101E3000C8610648016941F004010161016941F08E
:101E4000400101617047000068030020002002404B
:101E5000064A0021D16106490A6942F002020A617C
:101E60004861086940F0400008617047680300203D
:101E700000200240044B0022DA61044A136943F057
:101E800001031361018070476803002000200240B5
:101E90000A490020CA68D306094A04D5D06940F02F
:101EA0000200D0611020CB685B0705D5D36943F0F1
:101EB0000103D36140F00400C86070470020024075
:101EC0006803002070B5054601F0D4F80646104CB2
:101ED00009E0681C07D025B101F0CCF8801BA842AE
:101EE00001D9032070BDE068C007F2D1E068800628
:101EF00001D52020E060E068C00602D4E068400719
:101F000003D5FFF7C5FF012070BD002070BD0000A4
:101F10000020024010B50F4C0F492068884202D0C3
:101F20000E49012007E02046FFF7B3FDE18881421A
:101F300008D00BA1022002F0B5FEBDE81040012040
:101F400000F060B8A288BDE8104015A1012002F0A1
:101F5000A9BE000000F80008D8C7B6A55C96000826
:101F60005B5741524E5D20466C61736820636F6E13
:101F700066696775726174696F6E204352432065AC
:101F800072726F722C20696E697469616C697A690A
:101F90006E672064656661756C74730D0A000000DD
:101FA0005B494E464F5D2056616C696420636F6EDD
:101FB00066696775726174696F6E20666F756E64AD
:101FC00020696E20466C6173682C204465766963D5
:101FD000652049443A2025640D0A000010B5074CDD
:101FE00007492068884205D12046FFF752FDE18865
:101FF000814201D0012010BDA08810BD00F800086A
:10200000D8C7B6A52DE9F04186B080462248049095
:10201000ADF814800026ADF8166004A8FFF739FD6E
:10202000ADF8160000F0F8FE040002D002461BA135
:102030000FE0244D039601200096CDE9015003A93D
:10204000684600F04BFE040005D000F09BFE2246DF
:102050001DA103201AE0022704AE002405EB840131
:1020600056F824200023022000F096FE28B10446F2
:1020700000F088FE22461FA1EBE7641CBC42EDD3B2
:10208000044600F07FFE424628A1012002F00AFE2D
:1020900006B02046BDE8F081D8C7B6A55B455252D0
:1020A0004F525D204661696C656420746F20756EC7
:1020B0006C6F636B20466C6173683A2025640D0A6F
:1020C0000000000000F800085B4552524F525D20AE
:1020D0004661696C656420746F2065726173652068
:1020E000466C61736820706167653A2025640D0A4B
:1020F000000000005B4552524F525D204661696C02
:10210000656420746F20777269746520636F6E66F2
:10211000696775726174696F6E20746F20466C61B7
:1021200073683A2025640D0A000000005B494E46A2
:102130004F5D20446576696365204944202564200D
:102140007375636365737366756C6C7920777269F8
:102150007474656E20746F20466C6173680D0A009C
:102160002DE9F041044690F83C00884601280AD049
:10217000012584F83C502046FFF728F806004FF070
:10218000000703D037E00220BDE8F0812564206815
:10219000816821F080418160B8F1010F04D120688D
:1021A000816841F0804181602068816841F0004190
:1021B000816000F05FFF054613E000BF00F05AFFAA
:1021C000401B0A280DD920688068002809DA206C95
:1021D00020F0020040F01000206484F83C700120E0
:1021E000D2E7206880680028E8DB206C20F002003D
:1021F00040F00100206484F83C703046C4E70000E1
:10220000F0B594B00025009590F83C202E46012AA8
:1022100019D0012780F83C7003689A6852077CD473
:102220004A681F24052A11D2D3F830C002EB4202BB
:10223000520094402CEA040C0C6894404CEA040CC4
:10224000C3F830C035E0022014B0F0BD0A2A0FD226
:10225000D3F834C0521F02EB4202520094402CEAE1
:10226000040C0C6894404CEA040CC3F834C020E021
:102270000F2A0FD2D3F838C00A3A02EB42025200BA
:1022800094402CEA040C0C6894404CEA040CC3F80B
:1022900038C00EE0D3F83CC00F3A02EB42025200C5
:1022A00094402CEA040C0C6894404CEA040CC3F8EB
:1022B0003CC00268936813F00C0F4FF0070374D111
:1022C000D1F800E0BEF10A0F10D39469AEF10A0E06
:1022D0000EEB4E0C03FA0CFE24EA0E04D1F808E0D3
:1022E0000EFA0CFE44EA0E0494610FE0D2F814C01A
:1022F0000EEB4E0403FA04FE2CEA0E0CD1F808E0B3
:102300000EFA04FE4CEA0E0CC2F814C002684C69C6
:10231000D2F80CC0CCF3C10C00E0E1E04FEA4C0C69
:1023200004FA0CF4D1F810E0DFF810C2BEF1010F8E
:1023300042D0BEF1020F4DD0BEF1030F58D0BEF116
:10234000040F63D0146E91F800C004F0F844B4EBAD
:102350008C6F03D1146E24F0004414660268546E2E
:1023600091F800C004F0F844B4EB8C6F03D1546EC4
:1023700024F0004454660268946E91F800C004F0A2
:10238000F844B4EB8C6F03D1946E24F0004494664F
:102390000268D46E91F800C004F0F844B4EB8C6F7E
:1023A00003D1D46E24F00044D4660268946804F02B
:1023B0000304012C3AD136E0D2F860E00EEA0C0EAC
:1023C00091F800C044EA8C644EEA040E4EF00044DA
:1023D0001466EAE7D2F864E00EEA0C0E91F800C049
:1023E00044EA8C644EEA040E4EF000445466DCE786
:1023F000D2F868E00EEA0C0E91F800C044EA8C6452
:102400004EEA040E4EF000449466CEE7D2F86CE03B
:102410000EEA0C0E91F800C044EA8C644EEA040EF9
:102420004EF00044C0E71468E4075ED1CC68012C8C
:1024300006D052F8B03F0C78A740BB43136020E0B1
:1024400052F8B04F91F800C007FA0CF73C43146003
:102450000A6804680A2A0AD3A769093A02EB420209
:1024600093409F438B6893401F43A76109E06769CE
:10247000521C02EB420293409F438B6893401F43E0
:10248000676109682E4A102904D0112905D0122944
:1024900006D02AE093681B0204E09368DB0101E0A8
:1024A00093685B02002B20DB03684FF0A044A3423B
:1024B00002D1244F009700E000949F6807F00307C3
:1024C000012F02D11F68FF070AD1009F8FB1BF689B
:1024D00007F00307012F0CD1009F3F68FF0708D0CA
:1024E000016C41F020010164012580F83C60284620
:1024F000AAE6102908D011291AD01229F5D191681D
:1025000041F480019160F0E7A342EED1916841F47B
:10251000000191600C490D4A0968B1FBF2F101EB31
:102520008101490000E0491E00910029FBD1DCE750
:10253000A342DAD1916841F08071E3E700F0FF83B4
:1025400000030050000100501000002040420F0026
:10255000F0B5534A916888427ED102F10C01088897
:10256000504B947823F814004D8803EB4400058108
:102570008D880582C9880183641C04F00300907073
:102580000020044625462E464FEA000133F811701C
:10259000384403EB4107491CB7F808C004296444D8
:1025A000B7F810C03F8B65443E44EFDB3C49DFED9C
:1025B0003E0A1431800891ED020A91ED001A20EED6
:1025C000200AD1ED010A60EE200A81EE200A00EE19
:1025D000900AA008F8EE600A20EE802A00EE900A29
:1025E000A808F8EE600A60EE801A00EE900AB008C3
:1025F000F8EE600A20EE801A00EE900A2948F8EE04
:10260000600A203880ED002A60EE800AC0ED011AD1
:1026100080ED021AC0ED030A1378103001219BB33C
:1026200092ED010A10EE103AB3F17E5F2DDA537885
:1026300053B390ED003AD0ED002A32EE432A40EE3B
:10264000022AC0ED002AD0ED012A90ED012A71EE98
:10265000E21A00EE212A00E015E080ED012A90ED5B
:10266000022AD0ED021A31EE421A40EE011AC0EDF4
:10267000021AD0ED031A90ED031A70EEE10A00EE93
:10268000201A80ED031AF0BDFFE780ED002AC0EDAF
:10269000011A80ED021AC0ED030A5170F3E7000041
:1026A0003C000020880D002000F07F4570470000AE
:1026B00010B5044600680A4988420FD1626C09A12E
:1026C000032002F0EFFA606C400707D5A06B826B25
:1026D000BDE810400AA1032002F0E4BA10BD0000DA
:1026E000000100505B4552524F525D20414443204F
:1026F0004572726F723A203078256C580D0A0000CE
:102700005B4552524F525D20444D41204572726FDD
:10271000723A203078256C580D0A0000F0B54FF061
:10272000000595B004002F462E46009505D0206C7C
:10273000C00648D4206C18B133E0012015B0F0BDBC
:102740006664E664A66484F83C60204600F0D8F82D
:1027500020688068C00024D42046FEF737FD054677
:10276000206CC0061DD4E5B9206C20F4885040F0E0
:10277000020020642068816821F040518160206857
:10278000816841F080518160574858490068B0FB2A
:10279000F1F000EB8000400000E0401E00900028B7
:1027A000FBD120688168C90002D5806880000AD505
:1027B000206C20F0020040F010002064606C40F0BB
:1027C000010060640125206CC0067DD4002D7BD102
:1027D0002068816849077ED4216C21F4807141F022
:1027E0000201216442494FF0A042904200D1414A87
:1027F0000092826802F00302012A02D10068C00739
:1028000010D1009840B1806800F00300012803D186
:1028100000980068C00705D18868626820F44030DD
:1028200010438860D4E902100843616B012902D08B
:102830004FF4805200E00022617E42EA41321043B0
:1028400094F820203843012A0AD1A9B1216C21F043
:10285000020141F020012164616C41F001016164D9
:10286000A16A012902D0E26A1143084321688A68FB
:1028700012F00C0F08D013E0A18C1F4A02EB41416B
:10288000014341F48030EBE7CA6844F202039A4303
:10289000CA60217E94F83020890341EA420108434E
:1028A0002168CA68154B1A400243CA602069012892
:1028B0002068016B21F00F0102D1E269521E114321
:1028C00001636664206C00E005E020F0020040F047
:1028D0000100206406E0206C20F0020040F01000AF
:1028E00020640125284629E71000002040420F00FF
:1028F00000030050000100500000FEFF07C0F0FF81
:1029000070B586B0054614216846FDF7B3FC24492E
:102910002868884241D12349486940F08050486185
:10292000486900F080500590486940F400304861E3
:10293000486900F400300590486940F480204861FF
:102940004869032400F480200590702000268DE85B
:10295000510069464FF0904000F072FA4FF48050F9
:102960008DE851006946104800F06AFA104C0F4893
:10297000C4E900068020C4E90260400020618000B4
:1029800060612020A0610002E061204600F035F97E
:1029900008B1FFF749FAAC63656206B070BD00008C
:1029A0000001005000100240000400481C000240DA
:1029B000DC0000202DE9F047044600689046894677
:1029C000806840076ED494F83C0001280CD00120A8
:1029D0004FF0A04684F83C00D6F808034FF00007FB
:1029E000C00604D0012507E00220BDE8F08720469C
:1029F000FEF722FC050002D084F83C7053E0206C06
:102A000040F60161884340F480702064D6F80803E2
:102A1000C00602D02068B04206D1206C20F480109D
:102A200020642068C06807E0216C41F480112164B3
:102A30001E49884208D1F068800105D5206C20F439
:102A4000005040F480502064206CC00404D5606CB9
:102A500020F00600606400E0676484F83C70A16BBD
:102A600013488862A16B1348C862A16B12480863BF
:102A700021681C2008602068416841F01001416015
:102A80002068C16841F00101C160216843464A469F
:102A90004031A06B00F0D8F82068816841F0040153
:102AA000816000E0022528469FE7000000010050F9
:102AB0006D110008C7110008B111000810B540B130
:102AC00090F821100022022905D00421816380F8AA
:102AD0002020012010BD01680B6823F00E030B605D
:102AE00001680B6823F001030B6090F84030C46B61
:102AF000012101FA03F3636080F8211080F820209F
:102B0000002010BD10B590F821100024022903D038
:102B100004218163012418E001680A6822F00E0292
:102B20000A6001680A6822F001020A6090F84020F9
:102B3000C36B012101FA02F25A6080F821100021D2
:102B400080F82010416B01B18847204610BD806B92
:102B50007047F0B4C16B0D6801680C68066C042204
:102B600002FA06F32B420FD063070DD50B689B06C4
:102B700003D40B6823F004030B6090F840108A40E4
:102B8000C16B4A60C16A1BE0022303FA06F72F42B9
:102B90004FF0000C4FF0010216D0A70714D50C68B7
:102BA000A40605D40C6824F00A040C6080F82120E7
:102BB00090F840108B40C16B4B6080F820C0816A58
:102BC000002918D0F0BC08470823B3402B4212D08C
:102BD000230710D50B6823F00E030B6090F840100C
:102BE000C36B02FA01F15960826380F8212080F8FA
:102BF00020C0016BE4E7F0BC704770B5040021D041
:102C0000022084F821002268116843F6F0708143A5
:102C1000D4E901031843D4E903352B43184363690E
:102C20001843A3691843E36918430843106020461A
:102C3000FFF7D4F80020A063012184F8211084F864
:102C4000200070BD012070BD70B5044690F82000D2
:102C5000002501280CD0012084F8200094F8216080
:102C60000020012E06D084F820000225284670BDE1
:102C7000022070BD022684F82160A06320680668E7
:102C800026F0010606602046FFF7B8F8E06A002843
:102C90002068016802D041F00E0106E041F00A010F
:102CA00001602068016821F004010160206801686A
:102CB00041F001010160D9E770B5044600F0DAF98E
:102CC0000546601C02D004480078044400F0D2F9A4
:102CD000401BA042FAD370BD040000202DE9F0474C
:102CE000054626480F460126017E01290FD0012105
:102CF000814601762868DFF888804CF2503401283C
:102D000008D0A2462046FFF7DDF8A0B130E002204F
:102D1000BDE8F0872046FFF7D5F800BBFFF786F83F
:102D20002046FFF7CFF8D8F81010064621F004012E
:102D3000C8F810101CE04FF0FF3038606C6811E0EC
:102D40002046FFF785F85046FFF7BCF8D8F810107A
:102D5000060021F00201C8F8101001D03C6007E025
:102D600004F50064D5E9010100EBC120A042E7D8D9
:102D7000002189F818103046CAE7000068030020D7
:102D8000002002400348016941F0800101610020F8
:102D900070470000002002402DE9F05F07461C4804
:102DA00088460024017E15461E46012909D00121CE
:102DB000814601764CF2503A5046FFF783F818B13D
:102DC00022E00220BDE8F09F012F02D0022F00D0A8
:102DD0000427D346DFF83CA0220128463146FDF700
:102DE00020FA81B208EB4400FFF744F85846FFF799
:102DF00069F8DAF8102022F00102CAF8102018B998
:102E0000641CE4B2BC42E7D3002289F81820D9E759
:102E10006803002000200240064900200A691206CB
:102E200007D5054A4A60054A4A600969090600D57E
:102E3000012070470020024023016745AB89EFCD98
:102E40002DE9F04FDFF80092002301260325A9F1B8
:102E5000040B85B00F2709F1040AABF1040EEAE078
:102E600006FA03F422407CD091F804C00CF0030C65
:102E7000BCF1010F02D0BCF1020F26D1D0F808C07E
:102E8000CDF800C04FEA430C05FA0CF8CDF810C09D
:102E9000DDF800C02CEA080CCDF800C0D1F80C8099
:102EA000DDF810C008FA0CF8DDF800C048EA0C089C
:102EB000C0F80880D0F804C02CEA040C0C79C4F3E4
:102EC00000149C4044EA0C0444600C79E443A407D9
:102ED0000DD0D0F80CC04FEA430805FA08F42CEAEC
:102EE000040C8C6804FA08F444EA0C04C4600C79FD
:102EF00004F00304022C19D1DC0800EB84040294D2
:102F0000246A4FEA437C4FEADC6CCDF810C007FA24
:102F10000CFC24EA0C04D1F81080DDF810C008FA8B
:102F20000CF848EA0408029CC4F8208004684FEAC0
:102F3000430805FA08FC24EA0C0491F804C00CF0DC
:102F4000030C0CFA08FC4CEA040CC0F800C04C68F6
:102F500014F4403F6ED03D4CD4F818C04CF0010C36
:102F600000E067E0C4F818C0A46923F0030C04F083
:102F700001040094364C64440294A4684FEA837CB4
:102F80004FEA1C7807FA08FC24EA0C04B0F1904FD1
:102F900006D0DFF8C0C0604505D14FF0010C12E04B
:102FA0004FF0000C0FE0DFF8B0C0604502D14FF0E9
:102FB000020C08E0DFF8A4C0604502D14FF0030C1A
:102FC00001E04FF0050C0CFA08FC4CEA040C029CE2
:102FD000C4F808C0D9F80040CC46D1F80480944326
:102FE0005FEAC82800D51443CCF80040DAF8004066
:102FF000D446D1F8048094435FEA882800D514436E
:10300000CCF80040DBF80040DC46D1F80480944363
:103010005FEA883800D51443CCF80040DEF8004061
:10302000F446D1F8048094435FEAC83800D51443CD
:10303000CCF800405B1C0A6832FA03F47FF410AF4E
:1030400005B0BDE8F08F0000080401400010024008
:10305000000001400004004800080048000C00483F
:103060000069084000D0012070470AB181617047B3
:1030700081627047014880687047000004000020AA
:103080000248816802781144816070470400002082
:10309000074810B5016841F010010160032000F0FD
:1030A0006DF80F2000F006F800F024F8002010BDA5
:1030B0000020024070B50D4D04464FF47A71287817
:1030C000B1FBF0F00A490968B1FBF0F000F00CFD2B
:1030D00048B9102C07D200222146501E00F02EF8CD
:1030E00000206C6070BD012070BD00000400002055
:1030F00010000020094808B5816941F00101816193
:10310000816901F001010091C16941F08051C16103
:10311000C06900F08050009008BD0000001002401F
:10312000002809DB00F01F020121914040098000C6
:1031300000F1E020C0F8001170470000F0B40E4B21
:103140001B680C46C3F30223C3F10705042D00D905
:103150000425191D072901D2002300E0DB1E0126EA
:1031600006FA05F1491E214099409E40761E164000
:103170003143F0BC05F0A6BB0CED00E0064900F0C1
:10318000070208684FF6FF03184040EA0220034A8E
:1031900010430860704700000CED00E00000FA05E5
:1031A0002DE9F84F0446006800265C4DC0036ED53B
:1031B000E869C00008D4E86940F08050E861E86937
:1031C000012600F08050009055480168C90512D4CE
:1031D0000168804641F480710160FFF74BFF0746AC
:1031E00005E000BFFFF746FFC01B642835D8D8F8BC
:1031F0000000C005F6D5286A10F4407053D0A188AD
:1032000001F4407181424ED0286A4FF4803191FA26
:10321000A1F2B2FA82F29700424A4FF00108174435
:1032200020F44070C7F8008491FAA1F1B1FA81F15D
:1032300002EB81010023C1F800342862C00732D0BC
:10324000FFF718FF074641F2883A4FF0020907E0FE
:10325000FFF710FFC11B514502D90320BDE8F88FCD
:1032600099FAA9F1B1FA81F141F040014846B8EB71
:10327000511F01D129680CE090FAA0F1B1FA81F157
:1032800041F04001B0EB511F02D1296A01E015E085
:10329000696A99FAA9F0B0FA80F000F01F0008FA04
:1032A00000F21142D4D0286A616820F440700843CB
:1032B00028621EB1E86920F08050E8612078C007DC
:1032C00005D0286BA16820F003000843286320780C
:1032D000800605D5286BE16820F0100008432863BC
:1032E0002078000605D5E86A216920F4F8700843C3
:1032F000E8622088C00405D5286B616920F48070DD
:10330000084328632088400405D5286BA16920F470
:103310008050084328630020A0E70000001002400E
:1033200000700040000042422DE9F0470F460500C2
:1033300069D04A4E306800F00700B84209D23068C0
:1033400020F0070038433060306800F00700B842D2
:1033500059D12878424C800705D56068A96820F0CB
:10336000F000084360602878C0073DD069680120FC
:1033700001290DD0022923D05FF0020393FAA3F2B2
:10338000B2FA82F242F02002520904D0226803E02D
:103390004FF40033F2E7626A93FAA3F3B3FA83F3CC
:1033A00003F01F03984002422DD0606820F0030014
:1033B00008436060FFF75EFE804641F288390CE00A
:1033C0004FF00073DAE700BFFFF754FEA0EB0801EF
:1033D000494502D90320BDE8F0876068696800F0BC
:1033E0000C00B0EB810FEFD1306800F00700B8425D
:1033F0000BD9306820F0070038433060306800F0A7
:103400000700B84201D00120E5E72878400705D53C
:103410006068E96820F4E06008436060287800078D
:1034200006D56068296920F4605040EAC1006060F8
:1034300000F04EF86168F02292FAA2F201F0F00179
:10344000B2FA82F2D140074A515CC840064908608E
:1034500006480068FFF72EFE0020BCE7002002406F
:103460000010024084930008100000200800002093
:1034700008480949006849684FF4E06292FAA2F2EC
:1034800001F4E061B2FA82F2D140044A515CC840D2
:1034900070470000100000200010024094930008C4
:1034A00008480949006849684FF4605292FAA2F24C
:1034B00001F46051B2FA82F2D140044A515CC84032
:1034C0007047000010000020001002409493000894
:1034D0000F4A10B551680F4801F00C03042B12D0AD
:1034E000082B10D10C4BC1F38344D26A1C5D02F04F
:1034F0000F021033C9039A5C06D500231946FCF766
:103500005FFEA0FB040110BD0448A4FB000110BD38
:103510000010024000127A006493000800093D0088
:103520002DE9F84F050071D02878FC4EC0074FF008
:10353000010425D070686704C0F38100012807D01A
:103540007068C0F3810002281BD17068C00318D5D1
:1035500097FAA7F0B0FA80F040F02000400901D0BF
:10356000306800E0706A97FAA7F1B1FA81F101F0D2
:103570001F0104FA01F1084265D068680028D2D022
:1035800061E06868B0F5803F0BD010B1B0F5A02FB6
:1035900017D0306820F480303060306820F480200C
:1035A00002E0306840F480303060F06AA96820F0B2
:1035B0000F000843F062686820B3FFF75BFD8046A8
:1035C0000AE0306840F480203060EAE7FFF752FDFF
:1035D000A0EB0800642871D897FAA7F0B0FA80F041
:1035E00040F02000400901D0306800E0706A97FA8E
:1035F000A7F1B1FA81F101F01F0104FA01F10842CB
:10360000E4D020E0FFF736FD804607E0C2E000BFCF
:10361000FFF730FDA0EB08006428DCD897FAA7F08C
:10362000B0FA80F040F02000400901D0306800E09E
:10363000706A97FAA7F1B1FA81F101F01F0104FA5B
:1036400001F10842E4D12878DFF8D48280074FF0F6
:10365000000A4FF0020730D570684FF0F80B10F0F9
:103660000C0F07D07068C0F38100022827D1706862
:10367000C00324D497FAA7F0B0FA80F040F02000FD
:10368000400901D0306800E0706A97FAA7F1B1FAFA
:1036900081F101F01F0104FA01F1084202D028690A
:1036A000012877D130689BFAABF220F0F801686905
:1036B000B2FA82F29040014331605AE064E1286935
:1036C00088B394FAA4F0B0FA80F048F82040FFF7ED
:1036D000D1FC814606E000BFFFF7CCFCA0EB09005F
:1036E00002289AD897FAA7F0B0FA80F040F02000AC
:1036F000400901D0306800E0706A97FAA7F1B1FA8A
:1037000081F101F01F0104FA01F10842E4D03068B0
:103710009BFAABF26969B2FA82F220F0F8009140AC
:103720000843306025E0FFE794FAA4F0B0FA80F097
:1037300048F820A0FFF79EFC814605E0FFF79AFCC1
:10374000A0EB09000228CCD897FAA7F0B0FA80F0D5
:1037500040F02000400901D0306800E0706A97FA1C
:10376000A7F1B1FA81F101F01F0104FA01F1084259
:10377000E4D1287800076CD5A869A8B394FAA4F01E
:10378000B0FA80F008EB8000C0F88044FFF772FCCC
:10379000814607E0A4E100BFFFF76CFCA0EB090045
:1037A00002289ED897FAA7F0B0FA80F040F06000A7
:1037B000B4EB501F01D130680BE097FAA7F0B0FAD4
:1037C00080F040F06000B7EB501F01D1306A00E09C
:1037D000706A97FAA7F1B1FA81F101F01F0104FABA
:1037E00001F21042D8D034E0FFE794FAA4F1B1FA24
:1037F00081F108EB8101C1F880A4FFF73BFC814611
:1038000006E000BFFFF736FCA0EB090002289AD8BB
:1038100097FAA7F0B0FA80F040F06000B4EB501FC8
:1038200001D130680BE097FAA7F0B0FA80F040F0D1
:103830006000B7EB501F01D1306A00E0706A97FA60
:10384000A7F1B1FA81F101F01F0104FA01F210426F
:10385000D8D12878400768D5F0694FF00009C0003A
:1038600009D4F06940F08050F061F0694FF001092F
:1038700000F0805000902B480168C90512D40168FF
:1038800041F480710160FFF7F5FB834606E000BF5D
:10389000FFF7F0FBA0EB0B00642875D82148006807
:1038A000C005F5D5E86801280AD008B1052811D06F
:1038B000306A20F001003062306A20F0040002E03B
:1038C000306A40F001003062E86868B3FFF7D2FB6D
:1038D00083460DE0306A40F004003062F0E700BF3C
:1038E000FFF7C8FBA0EB0B0141F2883081424BD8B7
:1038F00097FAA7F0B0FA80F040F04000B4EB501F08
:1039000001D1306813E097FAA7F0B0FA80F040F0E8
:103910004000B7EB501F09D1306A08E000100240A8
:1039200000004242007000400CE040E0706A97FAEC
:10393000A7F1B1FA81F101F01F0104FA01F210427E
:10394000CED02DE0FFF796FB834607E0FFF792FB12
:10395000A0EB0B0141F28830814215D897FAA7F00D
:10396000B0FA80F040F04000B4EB501F01D1306855
:103970000CE097FAA7F0B0FA80F040F04000B7EB07
:10398000501F02D1306A01E083E0706A97FAA7F114
:10399000B1FA81F101F01F0104FA01F21042D5D110
:1039A000B9F1000F03D0F06920F08050F061E869B0
:1039B00080B37168C1F38101022977D04FF0807123
:1039C0004F000228504609D091FAA1F1B1FA81F1D5
:1039D00048F82100FFF74EFB05465DE0894691FA65
:1039E000A1F1B1FA81F1C24648F82100FFF742FB8C
:1039F000804605E0FFF73EFBA0EB0800022848D810
:103A000097FAA7F0B0FA80F040F02000400902D009
:103A1000306801E066E0706A97FAA7F1B1FA81F1C7
:103A200001F01F0104FA01F10842E3D1D5E90810C1
:103A30000843716821F474110843706099FAA9F081
:103A4000B0FA80F04AF82040FFF714FB054604E086
:103A5000FFF710FB401B02281BD897FAA7F0B0FA1B
:103A600080F040F02000400901D0306800E0706A2A
:103A700097FAA7F1B1FA81F101F01F0104FA01F1FF
:103A80000842E5D02EE000BFFFF7F4FA401B022801
:103A900002D90320BDE8F88F97FAA7F0B0FA80F0BA
:103AA00040F02000400902D0306801E00BE0706A6D
:103AB00097FAA7F1B1FA81F101F01F0104FA01F1BF
:103AC0000842E1D10EE00128E4D070682A6A00F4CF
:103AD0008031914204D1696A00F47010884201D0AB
:103AE0000120D7E70020D5E710B5401EB0F1807F58
:103AF00001D3012010BD4FF0E02460610F21601759
:103B000004F0E0FE0020A06107202061002010BD2D
:103B1000704770477047000030B590F83C20012A8C
:103B200037D0012280F83C20CA688C6822F44072A9
:103B300022434C6822F4806222430C6822F4006223
:103B400022430C6922F4805222434C6922F4005231
:103B500022438C6A22F4804222430C8B22F470228E
:103B600042EA04420C4D04680023AC420CD18D8C17
:103B700022F4700242EA0552CD6922F080722A4393
:103B8000096A22F000720A43626480F83C30002027
:103B900030BD022030BD0000002C0140F0B590F88F
:103BA0003C20012A2CD0012480F83C40022280F8DD
:103BB0003D2003685A689D68124EB34203D122F437
:103BC00070074A683A4322F070070A683A435A601D
:103BD0000268B24208D0B2F1804F05D00A4B9A4237
:103BE00002D00A4B9A4204D1896825F08003194318
:103BF000916080F83D40002180F83C100846F0BDFF
:103C00000220F0BD002C01400004004000400140B3
:103C100010B5040003D094F83D0010B107E0012076
:103C200010BD002084F83C00204600F023F802205C
:103C300084F83D00211D206804F00EF9012084F86D
:103C4000480084F83E0084F83F0084F8400084F87F
:103C5000410084F8420084F8430084F8440084F86A
:103C6000450084F8460084F8470084F83D000020B1
:103C700010BD000010B586B0044614216846FCF75C
:103C8000F9FA284A2168284891420ED1C16941F0C9
:103C90000201C161C069002200F00200059001210B
:103CA0001D20FFF74BFA1D2010E0204A914211D150
:103CB000C16941F01001C161C069002200F010002B
:103CC000059011463620FFF739FA3620FFF728FA1B
:103CD00006B010BD164A9142FAD1816941F48021A3
:103CE0008161816901F480210591416941F40031CC
:103CF00041614069032100F400300590802000906C
:103D0000022001900120CDE90201049069461004CF
:103D1000FFF796F8002201211A20FFF70FFA1A2068
:103D2000D4E70000000400400010024000100040F2
:103D30000048014090F83D10012901D00120704752
:103D4000022180F83D100168CA6842F00102CA6091
:103D500000680D49884208D0B0F1804F05D00B496A
:103D6000884202D00A49884207D18168094A114035
:103D7000062906D0B1F5803F03D0016841F001016A
:103D80000160002070470000002C0140000400404A
:103D9000004001400700010070B5044690F83C0067
:103DA0000025012817D0012684F83C60022084F801
:103DB0003D00226890682F4B184020F47F409060AF
:103DC0000868502838D00DDC20284FD005DC90B38F
:103DD000102811D14AE0022070BD302846D040287A
:103DE0000AD13BE060282FD070280DD0B0F5805F5D
:103DF00003D0B0F5005F12D0012584F83D600020AB
:103E000084F83C00284670BDCB68D1E901212068C8
:103E100004F079F82068816841F0770109E0CB6807
:103E2000D1E90121206804F06EF82068816841F42E
:103E300080418160E1E719E0CA684968206804F0C0
:103E4000D5F95021206806E0CA684968206804F066
:103E50000BFA6021206804F060F8CEE7CA68496870
:103E6000206804F0C3F940212068F4E72268014685
:103E70001046F0E788FFFEFF10B5084A016891423E
:103E80000BD1017F012908D1002100F0D3FB0146AD
:103E9000BDE81040024803F01BBE10BD00480140C1
:103EA000900900202DE9F041054690F83C000026DD
:103EB0000C46012810D0012085F83C0072B1042A7C
:103EC0001CD0082A2CD00C2A50D00126002085F8BE
:103ED0003C003046BDE8F0810220FBE7D4E9001247
:103EE000E368286804F094F92868816921F00C01DE
:103EF000816128688169A26811430FE0D4E900124A
:103F0000E368286804F0C2F92868816921F44061F7
:103F1000816128688169A26841EA02218161D5E74F
:103F20002868D4E9002C277B036A016A21F4807198
:103F30000162C16923F4206321F0030141EA0C010D
:103F400021F0F00C39074FF420674CEA116107EAC1
:103F500002221A43C16102622868C16921F00C0182
:103F6000C1612868C169A26811432BE02868D4E9BF
:103F70000021E768036AD0F820C02CF4805CC0F808
:103F800020C0D0F81CC023F420432CF4407C4CEA21
:103F9000012121F4704C4FF6FF7101EA07314FF413
:103FA000204741EA0C0107EA02321A43C16102626A
:103FB0002868C16921F44061C1612868C169A268AB
:103FC00041EA0221C16181E710B5040003D094F8F1
:103FD0003D0010B107E0012010BD002084F83C0036
:103FE000204600F022F8022084F83D00211D2068C0
:103FF00003F032FF012084F8480084F83E0084F882
:104000003F0084F8400084F8410084F8420084F8BE
:10401000430084F8440084F8450084F8460084F89E
:10402000470084F83D00002010BD704730B50446BD
:10403000002571B1042911D0082914D00C2917D0FA
:10404000102918D094F8430094F84720012817D17C
:1040500014E094F83E0094F84420F7E794F83F0009
:1040600094F84520F2E794F8400094F84620EDE7F4
:1040700094F84100E8E794F84200E5E7012A01D00E
:10408000012030BD022079B1042916D008291DD0A5
:104090000C2943D0102944D084F8430084F8470009
:1040A0000C2941D0012537E084F83E0084F8440013
:1040B0002068C26842F0020210E084F83F0084F8F1
:1040C00045002068C26842F0040207E084F840001E
:1040D00084F846002068C26842F00802C2600122EB
:1040E000206803F003FF13492068884208D0B0F12C
:1040F000804F05D01049884202D01049884207D12C
:1041000081680F4A1140062906D0B1F5803F03D0DF
:10411000016841F001010160284630BD84F841008A
:10412000BCE784F84200B9E72068C26842F0100298
:10413000D4E70000002C0140000400400040014092
:10414000070001002DE9F04104460068C6680569D2
:104150004FF00007A90713D5B10711D5F91E01616A
:1041600001202077206880698007204602D0FFF771
:1041700083FE04E000F0D4F8204600F0C5F927776C
:10418000680716D5700714D521686FF00400086120
:10419000022020772068806910F4407F204602D0FA
:1041A000FFF76AFE04E000F0BBF8204600F0ACF92F
:1041B0002777280715D5300713D521686FF0080039
:1041C0000861042020772068C0698007204602D05B
:1041D000FFF752FE04E000F0A3F8204600F094F947
:1041E0002777E80616D5F00614D521686FF0100081
:1041F0000861082020772068C06910F4407F2046BD
:1042000002D0FFF739FE04E000F08AF8204600F003
:104210007BF92777E80708D0F00706D021686FF010
:1042200001000861204600F0E3F9280608D53006B1
:1042300006D521686FF0800008612046FFF769FC11
:10424000E80508D5300606D521686FF4807008614E
:104250002046FFF75DFC680608D5700606D5216884
:104260006FF040000861204600F0F9F9A8060AD571
:10427000B00608D521686FF0200008612046BDE82F
:10428000F041FFF747BCBDE8F081000070B586B093
:10429000044614216846FBF7EDFF1F4B22680024FB
:1042A0001E4902254FF090409A421DD14A6942F4BE
:1042B00000324A614969064601F4003105914FF424
:1042C000E0610091CDE901540621CDE90341694641
:1042D000FEF7B6FDA8020090CDE901540B20CDE910
:1042E00003406946304612E0B2F1804F11D14A696D
:1042F00042F400324A61496901F4003105910F210D
:104300000091CDE901540121CDE903416946FEF751
:1043100097FD06B070BD0000002C01400010024067
:10432000704770B5044690F83C0000260D46012801
:104330000BD0012084F83C000C2A4AD007DC82B163
:10434000042A20D0082A06D131E0022070BD102AAC
:1043500053D0142A63D00126002084F83C00304654
:1043600070BD206803F0E2FD2068816941F008011A
:1043700081612068816921F004018161206881697F
:104380002A69114311E0206803F014FE2068816956
:1043900041F4006181612068816921F4806181615B
:1043A000206881692A6941EA02218161D4E7206895
:1043B00003F040FE2068C16941F00801C161206836
:1043C000C16921F00401C1612068C1692A691143F2
:1043D00011E0206803F06EFE2068C16941F40061BD
:1043E000C1612068C16921F48061C1612068C1692F
:1043F0002A6941EA0221C161AEE7206803F090FE1C
:104400002068416D41F0080141652068416D21F04F
:10441000040141652068416D2A69114311E020685B
:1044200003F0B0FE2068416D41F4006141652068F1
:10443000416D21F4806141652068416D2A6941EA3E
:104440000221416588E710B5040003D094F83D00CF
:1044500010B107E0012010BD002084F83C00204688
:1044600000F022F8022084F83D00211D206803F0AE
:10447000F3FC012084F8480084F83E0084F83F00F3
:1044800084F8400084F8410084F8420084F8430036
:1044900084F8440084F8450084F8460084F8470016
:1044A00084F83D00002010BD08B5154A0168154884
:1044B000914219D1816941F40061816180690022D2
:1044C00000F40060009003211920FEF737FE192048
:1044D000FEF726FE002201211A20FEF72FFEBDE87E
:1044E00008401A20FEF71CBEB1F1804F07D1C16908
:1044F00041F00101C161C06900F00100009008BDF8
:10450000002C0140001002407047000010B5044626
:10451000022269B1042912D0082917D00C291CD015
:10452000102921D094F84300012824D0012010BD87
:1045300094F83E000128F9D184F83E201DE094F85B
:104540003F000128F2D184F83F2016E094F84000A3
:104550000128EBD184F840200FE094F841000128B5
:10456000E4D184F8412008E094F842000128DDD12C
:1045700084F8422001E084F843200122206803F0FF
:10458000B5FC15492068154A884207D0904205D0ED
:10459000134B984202D0134B984203D1436C43F41F
:1045A000004343642068884207D0B0F1804F04D0B4
:1045B0000D49884201D0904207D181680B4A1140D1
:1045C000062906D0B1F5803F03D0016841F0010112
:1045D0000160002010BD0000002C0140004001409F
:1045E0000044014000480140000400400700010071
:1045F00010B500680C49884203D1BDE8104003F0B3
:1046000075B80A4988420ED109480178491CC9B2D7
:104610000170192903D30021017002F081FEBDE869
:10462000104002F003BC10BD000400400010004028
:10463000000000200246002041B1042909D00829C9
:104640000AD00C2901D11068006C70471068406BCB
:1046500070471068806B70471068C06B7047704778
:104660007047704770B50446C06FD4F88060216809
:1046700089684FF01005090618D5212816D1206841
:10468000083050E8001F21F0800140E80012002AA5
:10469000F5D1206F38B1FEF711FA20B1206FFEF787
:1046A00056FA202821D0204603F06BFF206880684E
:1046B000400618D5222E16D12068083050E8001F79
:1046C00021F0400140E80012002AF5D1606F38B1B6
:1046D000FEF7F4F920B1606FFEF739FA202804D014
:1046E000204603F028FF002070BDC4F8845003204A
:1046F00070BD70472DE9F04102680446D069116829
:10470000936840F60F0528424FF000054FF002066F
:1047100005D187067ED58F067CD5A16E2AE1DFF80C
:1047200084C203F0010701EA0C0C57EA0C0C71D0AB
:104730005FEAC07C0CD05FEAC15C09D54FF0010C88
:10474000C2F820C0D4F8842042F00102C4F88420CA
:10475000820709D5DA0707D022681662D4F88420C8
:1047600042F00402C4F8842042070AD5DA0708D0D0
:10477000236804221A62D4F8842042F00202C4F8AA
:10478000842002070CD501F020023A4308D02368A8
:1047900008221A62D4F8842042F00802C4F8842067
:1047A00002050BD54A0109D523684FF400621A624D
:1047B000D4F8842042F02002C4F88420D4F8842065
:1047C000002A36D0800605D5880603D5A16E09B12A
:1047D00020468847D4F8840021688968490602D4B5
:1047E00010F0280F27D0204603F0A5FE206880682F
:1047F00040061BD52068083050E8001F21F040011A
:1048000040E80012002AF5D1606F78B16649416333
:10481000606F00E015E0FEF775F9002809D0606FC1
:10482000416B00E02046BDE8F04108472046FFF715
:1048300060FFBDE8F0812046FFF75BFFC4F88450BD
:10484000F7E7D4F860C02027BCF1010F7DD15FEA03
:10485000C06C7ED55FEAC16C7BD5102010622068E9
:104860008068400642D5616F086840680004000C0B
:10487000DFD0B4F858208242DBD9A4F85A00886906
:1048800020282BD0216851E8000F20F4807041E8E7
:104890000002002AF6D12068083050E8001F21F0FD
:1048A000010140E80012002AF5D12068083050E8E4
:1048B000001F21F0400140E80012002AF5D1C4F8A1
:1048C00080702566206850E8001F21F0100140E844
:1048D0000012002AF6D1606FFEF7F0F86666B4F8B1
:1048E0005800B4F85A10401A81B22CE0B4F85800BD
:1048F000B4F85A10401A81B2B4F85A00002898D07F
:10490000002996D0226852E8000F20F4907042E807
:104910000003002BF6D12068083050E8002F22F069
:10492000010240E80023002BF5D1C4F88070256611
:10493000A566206850E8002F22F0100240E800230E
:10494000002BF6D16666204600E002E0FFF788FE05
:104950006FE7C60209D55B0207D54FF480101062DD
:104960002046BDE8F041FFF77CBE020606D50A06E8
:1049700004D5E16E00297FF455AF5AE74006E7D52C
:104980004806E5D52046026852E8001F21F04001A4
:1049900042E80013002BF6D1C767C56600F001F9A5
:1049A00047E70000200100043384000810B504002C
:1049B00002D0E06F10B107E0012010BD002084F8A4
:1049C0007800204600F026F82420E067206801687F
:1049D00021F001010160606A10B1204603F071FC12
:1049E000204603F0DBFD0128E7D02068416821F470
:1049F000904141602068816821F02A01816020682F
:104A0000016841F0010101602046BDE8104003F05B
:104A1000BCBC000070B586B0064614216846FBF7A2
:104A200029FC2149306888423BD12049886940F4FB
:104A300080408861886900F480400590486940F4AE
:104A4000802048614869002500F480200590C0203E
:104A500000900220CDE90105032003900720049077
:104A600069461348FEF7ECF9134C1248C4E90005F7
:104A70008020C4E9025020202561C4E90550C0010E
:104A8000E0612046FEF7B9F808B1FDF7CDF974678B
:104A90000022032125206662FEF750FB2520FEF749
:104AA0003FFB06B070BD000000380140001002401E
:104AB00000040048580002402403002030B4D0F81D
:104AC0008030202B02D0022030BC704791B18AB1D7
:104AD0000023036603685B681B0208D5046854E87A
:104AE000003F43F0806344E80035002DF6D130BC30
:104AF00003F0F4BD0120E7E7FCF788BF70472DE91C
:104B0000F8430446C06F984616460D46202802D04A
:104B10000220BDE8F88395B18EB10020C4F884006E
:104B20002120E067FEF7A6FAA4F850608146A4F8B9
:104B30005260A0682027B0F5805F02D003E001201A
:104B4000E7E7206910B12E46002510E000260EE0B0
:104B50008021204603F012FEC0B9D6B116F8010B31
:104B600021680885B4F85200401EA4F85200B4F839
:104B700052004B464FF00002CDF800800028E7D1EC
:104B80004FF04001204603F0F9FD38B1E7670320FC
:104B9000BFE735F8020BC0F30800E1E7E767002044
:104BA000B7E77047FEE7000008B540B16A4609A1C3
:104BB000FBF7B4FB012802D10098002801DC022099
:104BC00008BD80B202F046FF03A00099FCF71AFE70
:104BD000002008BD256400005374617274696E671B
:104BE00020726F746174696F6E2070726F63657389
:104BF000732077697468202564206379636C65731A
:104C00000D0A000010B502F041FF02A0FCF7FAFD0A
:104C1000002010BD526F746174696F6E2070726FE6
:104C2000636573732073746F707065640D0A0000A0
:104C300010B502F061F903F023F80448FFF77AF8A1
:104C4000BDE8104002A1012000F02CB804020020B1
:104C50005B494E464F5D20537065656420636F6EFF
:104C600074726F6C2073797374656D20696E6974EA
:104C700069616C697A65640D0A0000000548C078B6
:104C8000012804D103480F30C078012800D000204B
:104C900070470000A80D00200149486070470000DF
:104CA0006C0000200FB430B50F4CC1B06168002912
:104CB00015D02178884212D34FF4807546AB29462F
:104CC0006846459A03F0E8FD002808DDFF2800DD6E
:104CD000284682B2642369466068FFF710FF41B03E
:104CE00030BC5DF814FB00006C000020034800237A
:104CF00004221946006804F0D3BA00005C000020CA
:104D0000024904220860002104F0F6BA5C00002089
:104D10000346034804220021006804F0C1BA0000E1
:104D20005C000020034800230C220821406804F0A6
:104D3000B7BA00005C00002002490C22486008213C
:104D400004F0DABA5C000020034603480C22082174
:104D5000406804F0A5BA00005C000020034800236E
:104D600004221946806804F09BBA00005C00002011
:104D7000024904228860002104F0BEBA5C000020D1
:104D80000346034804220021806804F089BA000029
:104D90005C000020034800230C220821C06804F0B6
:104DA0007FBA00005C00002002490C22C860082184
:104DB00004F0A2BA5C000020034603480C2208213C
:104DC000C06804F06DBA00005C00002070B586B0C9
:104DD00018216846FBF74EFA274826490024C0E907
:104DE0000014012505618460447680F82040A90202
:104DF000C1620426C6614FF41071C460816280F8FC
:104E000030500821416104764563FDF787FC08B105
:104E1000FDF70AF80720CDE90204009501950494F6
:104E2000694615480594FDF7EBF908B1FCF7FCFF5E
:104E300002200090019069460F48FDF7E1F908B1A2
:104E4000FCF7F2FF03200090019069460A48FDF745
:104E5000D7F908B1FCF7E8FF0D20CDE90006694657
:104E60000548FDF7CDF9002801D0FCF7DDFF06B0BD
:104E700070BD0000000100508C0000200D4808B5F6
:104E8000416941F0010141614069002200F00100E7
:104E9000009002210C20FEF751F90C20FEF740F99A
:104EA000002203210F20FEF749F9BDE808400F203A
:104EB000FEF736B9001002402DE9F04786B0142104
:104EC0006846FBF7D7F93748416941F40021416151
:104ED000416901F400210591416941F4800141617A
:104EE000416901F480010591416941F4003141615A
:104EF000416901F400310591416941F4802141612A
:104F00004069DFF8A48000F480204FF4005405903D
:104F1000002221464046FEF7A8F8DFF8909042F2C2
:104F20000226002231464846FEF79FF8A7004FF0C0
:104F3000904A002239465046FEF797F80125CDE900
:104F4000004500240294694640460394FDF778FF2B
:104F50004FF440408DE8310069464046FDF770FF50
:104F600048F221108DE8310069464846FDF768FF98
:104F70000096CDE90154694648460394FDF760FF69
:104F800028038DE8310069465046FDF759FF009728
:104F9000CDE90154694650460394FDF751FF06B030
:104FA000BDE8F087001002400008004800040048F7
:104FB0001FB50024164800940194029413490394E9
:104FC00001604721C0E901144FF6FF71C0E90314E5
:104FD00044618461FEF71CFE08B1FCF725FF0C4814
:104FE000FEF7F2FF08B1FCF71FFF0120CDE90040FA
:104FF0000F20CDE90240002269460548FEF752FF26
:10500000002801D0FCF710FF1FBD00000048014040
:105010005002002010B596B00024129413941C2165
:1050200068461494FBF726F92C2107A8FBF722F910
:105030002F482E4901600321C0E9011440F2833159
:10504000C0E9031444618461FFF7FDF908B1FCF77E
:10505000EBFE2020CDE9120412A925481494FEF796
:105060009DFD08B1FCF7E0FE6020CDE9000402944C
:10507000039404940594002269461D480694FFF7A2
:1050800050F908B1FCF7D0FE042269461848FFF732
:1050900048F908B1FCF7C8FE082269461448FFF732
:1050A00040F908B1FCF7C0FE0C2269461048FFF732
:1050B00038F908B1FCF7B8FE0794089409944FF446
:1050C00000500A94CDE90B400003CDE90E400D9449
:1050D000109407A906481194FEF71EFD08B1FCF7CD
:1050E000A3FE0348FFF7D2F816B010BD002C014014
:1050F0002001002010B58AB00024079408941C21D8
:1051000068460994FBF7B6F821484FF080410160EA
:105110000321C0E9011440F28331C0E90314846122
:10512000FFF791F908B1FCF77FFE079407A918482B
:105130000994FEF733FD08B1FCF776FE6020CDE957
:10514000000402940022694611480494FFF7E9F82C
:1051500008B1FCF769FE042269460D48FFF7E1F843
:1051600008B1FCF761FE082269460948FFF7D9F843
:1051700008B1FCF759FE0C2269460548FFF7D1F843
:1051800008B1FCF751FE0248FFF780F80AB010BDE5
:105190006C01002010B588B00024184800940194D8
:1051A00002940394049405941349069401604721E2
:1051B000C0E9011440F2E731C0E903148461FEF74D
:1051C00027FD08B1FCF730FE4FF48050009069468F
:1051D0000A48FEF7E1FD08B1FCF726FE2020049006
:1051E00004A906940548FEF7D9FC002801D0FCF775
:1051F0001BFE08B010BD000000040040B8010020F4
:105200003EB500240E48009401940C4902940160BC
:105210004721C0E90114C7218461C160FEF7F8FC91
:1052200008B1FCF701FE0094694605480294FEF7B8
:10523000B5FC002801D0FCF7F7FD3EBD0010004092
:10524000040200200D4810B50B4901604FF4E13114
:105250004160002181600C22C160C0E904128161BB
:10526000C16101624162FFF7A1FB002803D0BDE8E4
:105270001040FCF7D9BD10BD003801409C02002051
:1052800070B504460D460846FBF71BF80246A07BA6
:1052900090420BD300200CE0111A2944231811F876
:1052A000011C1B793039C9B28B4201D0002070BD7E
:1052B000401C9042F0D3012070BDFEE730B589B0AC
:1052C00000282BD007AB06AA05A98DE80E0004AB79
:1052D00003AA13A1FBF722F805281FD10498C1B235
:1052E000039880B2FCF7ECFBC0B1049A104C501E3E
:1052F000C5B2059883B22380069881B26180079871
:1053000080B2A0800093CDE90110201F0399435D76
:1053100008A0FCF777FA002009B030BD0220FBE7B7
:1053200025642C25642C25642C25642C2564000020
:105330001C00002041542B4D6F746F72416C6172E0
:105340006D56616C75653D25642C25642C25642C97
:1053500025642C25642C25640000000010B5FCF7A2
:10536000D9FDFCF73BFE044902464880BDE81040E9
:1053700002A10120FFF796BC140000205B494E46B5
:105380004F5D204D6F746F7220636F6D6D616E6441
:10539000206D6F64756C6520696E697469616C69F4
:1053A0007A6564207769746820446576696365204E
:1053B00049443A2025640D0A000000002DE9F0431D
:1053C000B1B0C8B3044623AA25A924A88DE80700D4
:1053D00027AB26AA4BA12046FAF7A0FF05282BD120
:1053E0004C4926984988884226D12798012823DBF2
:1053F000022821DC239901291EDB08291CDC401E20
:10540000C5B200262C212046FAF751FFA0B1441C5A
:10541000761C052EF6DB00260DF10C082BE02BAADE
:105420002FA92EA88DE807002DAB2CAA35A1204668
:10543000FAF774FF052803D0022031B0BDE8F083ED
:1054400008EB06102C9901602D9901712E99C180ED
:105450002F9901812B990027C16009E02C2120465A
:10546000FAF725FF040000D0441C7F1C052F01DA49
:10547000002CF3D1761C23988642D0DB05EBC500C7
:1054800000EB45112448012200EB810400F82120A3
:10549000269A6280279820712498A060002625987B
:1054A000C4E90306239820756675FDF7E3FDA06146
:1054B000FDF7E0FDE06184F820600020C1462399FB
:1054C0000AE000BF09EB001204EB001392E884111C
:1054D0002433401C83E884118842F3DB0096A38DBB
:1054E000628D94F82810284601F0CEFF2399259864
:1054F000CDE90001DDE9261208A0249BFCF782F922
:1055000000209AE725642C25642C25642C25642C26
:105510002564000014000020F003002041542B4DAE
:105520006F746F725061697252756E437573746FE8
:105530006D3D25642C25642C312C25642C25642C90
:1055400025642C30000000002DE9F04395B000B335
:1055500005AD0AAC14AB13AA12A985E81E0001AD73
:1055600011AC09AB0EAA0DA985E81E000CA900918B
:1055700010AB0FAA4DA1FAF7D1FE0B2809D1544860
:105580000F9A4088824204D11098411E0C4602298D
:1055900003D3022015B0BDE8F08342F211710C9BD9
:1055A0004D1E8B4205D3002B01DA002300E02B4671
:1055B0000C930D9B8B4205D3002B01DA002300E0F6
:1055C0002B460D930E9B8B4203D3002B00DA002554
:1055D0000E95099B4FF47A71002B00DA0991E7B21E
:1055E00007EB8703DFF8EC8003EBC706002508EB29
:1055F000860408F82650228684F832000C986080D1
:105600000D98A0800E98E0800998A06011984FF046
:105610000109B0FBF1F0E0601298B0FBF1F02061FD
:105620001398B0FBF1F060611498B0FBF1F0A06149
:105630000A98C4E9070584F82D5084F82C90FDF7EA
:1056400019FD6062FDF716FD09990844A06284F80F
:105650002E5008F826900D98009583B20C980121E1
:1056600082B2384601F010FF4FF47A71A069626986
:1056700048434A4321694FF47A735943E3684FF42E
:105680007A7463430A9C07940491CDE90520DDE90F
:105690000D21099803930092CDE90110DDE90F1265
:1056A0000DA00C9BFCF7AEF8002073E725642C25B9
:1056B000642C25642C25642C25642C25642C2564FD
:1056C0002C25642C25642C25642C25640000000006
:1056D000140000208803002041542B4D6F746F721A
:1056E0005061697252756E5265706561743D2564D2
:1056F0002C25642C312C25642C25642C25642C2528
:10570000642C25642C25642C25642C25642C2564AC
:105710002C3000003EB580B102AB01AA19A1FAF706
:10572000FDFD022809D1194801994088814204D120
:10573000029A012A01DB022A01DD02203EBD501E31
:10574000C0B200EBC003124C03EB401514F8253037
:1057500093B10121002300911A46194601F094FEED
:1057600004EB8500DDE9011203690AA0FCF74AF8A1
:10577000002004F8250002E00FA0FCF743F8002009
:105780003EBD000025642C256400000014000020AC
:10579000F003002041542B4D6F746F725061697299
:1057A00053746F70437573746F6D3D25642C25645D
:1057B0002C312C256400000041542B4D6F746F7206
:1057C0005061697253746F70437573746F6D3D25CA
:1057D000642C25642C302C30000000003EB580B1D4
:1057E00002AB01AA19A1FAF799FD022809D11948BB
:1057F00001994088814204D1029A012A01DB022AE0
:1058000001DD02203EBD501EC0B200EB8003124CF1
:1058100003EBC00514F8253093B10121002300915A
:105820001A46194601F030FE04EB8500DDE901124D
:10583000036A0AA0FBF7E6FF002004F8250002E057
:105840000FA0FBF7DFFF00203EBD000025642C25E4
:1058500064000000140000208803002041542B4DF8
:105860006F746F725061697253746F7052657065B6
:1058700061743D25642C25642C312C2564000000C6
:1058800041542B4D6F746F725061697253746F7015
:105890005265706561743D25642C25642C302C3074
:1058A000000000002DE9F04F8FB0FDF7E3FB00256D
:1058B000DFF8F893FE4F04464FF0010BAA46785DDF
:1058C00000287DD009EB0516307BD8B17068C8B1CF
:1058D000B168611A814215D300221146284601F0B1
:1058E0005BFE86F80CA070684FF47A7148437188AB
:1058F000CDE90010EE487B5D001F6A1C4188EDA0D9
:10590000FBF780FFE94905EBC500403101EB80065C
:10591000079096F82200002868D0F069221A96F8BD
:10592000210030B101280FD002281BD003285DD1FF
:1059300024E07068904259D800221146284601F0B0
:105940002BFE86F821B00BE0B06890424ED8079845
:1059500031F820200221284601F01EFE02200AE034
:10596000F46143E0F068904240D800221146284696
:1059700001F012FE032086F82100F1E73069904221
:1059800034D8D6F818804FF47A7108F10108C6F8B7
:105990001880F26848434A43B1684FF47A73594318
:1059A00073684FF47A7C03FB0CF3D6F814C0CDE98E
:1059B0000320DFF8F8E2CDE905C80EF1400E00E063
:1059C0008FE007986A1C3EF82000CDE90003B84834
:1059D0000291001F7B5D4188BEA0FBF713FF706939
:1059E00058B3B169814228D386F822A0C54805EB97
:1059F000450100EB811696F8BC0098B3D6F8B800C4
:105A00007168221A91422ED8F068401CF060327CF6
:105A1000B368CDE90220CDE900137B5DB27831880F
:105A2000B9A0FBF7EFFEB06898B1F168814210D3DE
:105A3000002286F8BCA0114611E09C48079940302E
:105A400030F821200121284601F0A6FD86F821A08A
:105A500086E7C6F8B84086F8B4A0728B317E284637
:105A600001F09AFD10E096F8B400317C401CC0B201
:105A7000814209D906EBC0014B699A4204D386F8EA
:105A8000B4004A8B097EEAE78848D03000EB051065
:105A9000017B31B38168621A41688A4221D38460F4
:105AA00007A9284601F030FDBDF828009DF82A30EE
:105AB000BDF82610CDE903100DF12B02CDE905321A
:105AC000BDF820009DF82420BDF822108DE80700C5
:105AD0009DF81F309DF81E20BDF81C1094A0FBF708
